:020000040800F2
:10000000A80700208D040008910200089302000850
:10001000970200089B0200089F02000800000000F1
:10002000000000000000000000000000A302000823
:10003000A502000800000000A7020008A9020008AD
:10004000A7040008A7040008A7040008A7040008E4
:10005000A7040008A7040008A7040008A7040008D4
:10006000A7040008A7040008A7040008A7040008C4
:10007000A7040008A7040008A7040008A7040008B4
:10008000A7040008A7040008A7040008A7040008A4
:10009000A7040008A7040008A7040008A704000894
:1000A000A7040008A7040008A7040008A704000884
:1000B000A7040008A7040008A7040008A704000874
:1000C000A7040008A7040008A7040008A704000864
:1000D000A704000837120008A7040008A7040008B6
:1000E000A7040008A7040008A7040008A704000844
:1000F000A7040008A7040008A7040008A704000834
:10010000A7040008A7040008A7040008A704000823
:10011000A7040008A7040008A7040008A704000813
:10012000A7040008A7040008A7040008A704000803
:1001300000F002F800F03AF80AA090E8000C8244BF
:100140008344AAF10107DA4501D100F02FF8AFF29C
:10015000090EBAE80F0013F0010F18BFFB1A43F0A5
:1001600001031847E824000008250000103A24BFC6
:1001700078C878C1FAD8520724BF30C830C144BF0C
:1001800004680C607047000000230024002500264E
:10019000103A28BF78C1FBD8520728BF30C148BFEA
:1001A0000B6070471FB51FBD10B510BD02F01BF9E5
:1001B0001146FFF7F7FF00F009F802F039F903B430
:1001C000FFF7F2FF03BC00F0DDFF000000F070FF5E
:1001D000012001F080F801F09DFF01F053FC02F0D6
:1001E00099F802F0C2F801F0D3FC42F21900244958
:1001F0000880052088700720C87028200871162004
:100200004871532088712020C87101F0ABFE1D4851
:10021000C07930381C490870194801F071FE2DE092
:1002200001F0A0FE174800783038184908701548CA
:100230004078303848701348C0783038887011489A
:1002400000793038C8700F488079303808710D480F
:10025000C07930384871084640790B49097888429E
:1002600005D00A4840790849087002F07EF807482E
:1002700001F080F94FF4FA7001F022F8D0E70000A5
:100280006C00002056000020070000200100002024
:10029000704700BFFEE700BFFEE700BFFEE700BFFC
:1002A000FEE7704770477047704700000CB50020AC
:1002B000019000906C48006840F480306A49086002
:1002C00000BF6948006800F4003000900198401CAD
:1002D0000190009818B90198B0F5A06FF1D162486B
:1002E000006800F4003010B10120009001E000200F
:1002F00000900098012843D15C48006840F010004D
:100300005A4908600846006820F003000860084663
:10031000006840F002000860534840685249486055
:100320000846406848600846406840F4806048607D
:100330000846406820F47C1048600846406840F455
:10034000E81048600846006840F08070086000BF10
:100350004548006800F000700028F9D04248406825
:1003600020F00300404948600846406840F0020021
:10037000486000BF3C48406800F00C000828F9D1F4
:100380000CBD10B5FFF792FF10BD10B536480068E0
:1003900040F001003449086008464068344908408C
:1003A0003149486008460068324908402E490860D3
:1003B0000846006820F4802008600846406820F461
:1003C000FE0048604FF41F008860FFF7DAFF4FF02F
:1003D00000602949086010BD10B5002100200022EE
:1003E000214B5B6803F00C0121B1042906D00829D8
:1003F00028D107E0214B224C236027E01F4B204CE3
:10040000236023E0184B5B6803F47010164B5B68A5
:1004100003F48032022303EB904022B9194B43438B
:10042000174C23600DE0104B5B6803F4003323B1DD
:10043000144B4343124C236003E0104B4343104CD6
:10044000236003E00D4B0E4C236000BF00BF064B42
:100450005B68C3F303130C4CE15C094B1B68CB4096
:10046000074C236010BD0000001002400020024035
:100470000000FFF8FFFFF6FE08ED00E000127A0032
:100480000C00002000093D001000002009488047B2
:1004900009480047FEE7FEE7FEE7FEE7FEE7FEE766
:1004A000FEE7FEE7FEE7FEE704480549054A064B7E
:1004B000704700008B03000831010008A8010020EC
:1004C000A8070020A8030020A80300203149014309
:1004D000314A1160704770B5002100230F22C478A3
:1004E00004B32D4C246804F4E064C4F5E064210AEC
:1004F000C1F10403CA40447804FA03F1847814403B
:1005000021430901254C0678A155047804F01F0504
:100510000124AC4005786D11AD0005F1E025C5F86A
:10052000004109E0047804F01F050124AC401C4D93
:100530000678761145F8264070BD1A4A0A400243F3
:10054000154B1B1F1A60704739B1134A121D1268F0
:100550000243114B1B1D1A6006E00F4A121D126860
:1005600082430D4B1B1D1A607047042808D14FF0C1
:10057000E021096941F004014FF0E022116107E038
:100580004FF0E021096921F004014FF0E0221161F0
:10059000704700000000FA050CED00E000E400E008
:1005A00080E100E080FFFF1F10B50446CC48844284
:1005B00008D10121042000F02DFB0021042000F0CF
:1005C00029FB46E0C748844208D10121082000F0F9
:1005D00021FB0021082000F01DFB3AE0C2488442C4
:1005E00008D10121102000F015FB0021102000F09F
:1005F00011FB2EE0BD48844208D10121202000F0EB
:1006000009FB0021202000F005FB22E0B8488442CD
:1006100008D10121402000F0FDFA0021402000F027
:10062000F9FA16E0B348844208D10121802000F095
:10063000F1FA0021802000F0EDFA0AE0AE48844291
:1006400007D10121801500F0E5FA0021A01500F086
:10065000E1FA10BD10B50121084600F0DBFA0021D7
:10066000012000F0D7FA10BD2DE9F0410246002527
:100670000026002000230024002791F803C00CF07E
:100680000F0591F803C00CF0100CBCF1000F03D063
:1006900091F802C04CEA050591F800C0BCF1000FCA
:1006A00031D0146800202BE04FF0010C0CFA00F35D
:1006B000B1F800C00CEA03069E4220D183004FF03F
:1006C0000F0C0CFA03F7BC4305FA03FC4CEA0404D4
:1006D00091F803C0BCF1280F06D14FF0010C0CFAC1
:1006E00000FCC2F814C00AE091F803C0BCF1480F46
:1006F00005D14FF0010C0CFA00FCC2F810C0401CF0
:100700000828D1D31460B1F800C0BCF1FF0F34DD6C
:10071000546800202EE000F1080C4FF0010808FAA0
:100720000CF3B1F800C00CEA03069E4221D183000D
:100730004FF00F0C0CFA03F7BC4305FA03FC4CEA2C
:10074000040491F803C0BCF1280F05D100F1080C96
:1007500008FA0CF8C2F8148091F803C0BCF1480FF5
:1007600007D100F1080C4FF0010808FA0CF8C2F8A4
:100770001080401C0828CED35460BDE8F0814FF6AD
:10078000FF710180022181700421C170704702460F
:10079000002093680B400BB1012000E0002070475F
:1007A0000146886880B2704702460020D3680B403B
:1007B0000BB1012000E0002070470146C86880B2FC
:1007C000704701617047416170470AB1016100E003
:1007D00041617047C16070474FF480320A438261C3
:1007E0008161826182698269704702460020434BC1
:1007F00018684FF68073184040EA021008433F4BD8
:10080000186070473E49C8617047F0B50A4600233A
:1008100000240021002500F00046B6F1004F02D16F
:10082000364EF16901E0354E7168C0F3034583B27D
:1008300000F44016B6F5401F08D121F070612F4E2C
:10084000766826F070662D4F7E6012E000F4801608
:10085000B6F5801F06D1032606FA05F4A14341F040
:10086000706106E0460D360103FA06F6B14341F029
:10087000706122B1460D360103FA06F6314300F0ED
:100880000046B6F1004F02D11C4EF16101E01B4E53
:100890007160F0BD30B500228B071C0F0F2303FAE7
:1008A00004F2164B08338C1053F824309343134C46
:1008B00008348D1044F8253023468C1053F824302A
:1008C0008C07240F00FA04F423430C4C08348D10D9
:1008D00044F8253030BD0A49DC310860704700001B
:1008E00000080140000C01400010014000140140CC
:1008F00000180140001C01400020014000000140A0
:1009000000002042DF48006840F00100DD49086037
:1009100008464068DC490840DA49486008460068F3
:10092000DA490840D74908600846006820F480206A
:1009300008600846406820F4FE0048604FF41F003D
:1009400088607047CF49096821F48031CD4A116031
:100950001146096821F480211160B0F5803F03D071
:10096000B0F5802F0ED106E0C649096841F4803108
:10097000C44A116007E0C349096841F4A021C14A93
:10098000116000E000BF00BF704710B501460022B3
:10099000002300204A11012A02D1BA4C236806E044
:1009A000022A02D1B74C236A01E0B64C636A01F017
:1009B0001F02012494401C400CB1012000E00020E3
:1009C00010BD38B5002000900024002500BF312064
:1009D000FFF7DBFF05460098401C00900098B0F53B
:1009E000A06F01D0002DF2D03120FFF7CEFF08B16B
:1009F000012400E00024204638BD01460020A14A21
:100A0000106820F0F80040EAC10010607047A0496B
:100A100008607047024600209A4B586820F47C100A
:100A200042EA01031843974B58607047984908669B
:100A3000704701460020934A506820F003000843A5
:100A4000506070478F48406800F00C0070470146C6
:100A500000208C4A506820F0F00008435060704736
:100A600001460020874A506820F4E0600843506047
:100A7000704701460020834A506820F4605040EAE5
:100A8000C1005060704729B17E4A527A02437D4BC3
:100A90005A7204E07B4A527A82437A4B5A72704708
:100AA0007B49D8310860704701460020754A50687C
:100AB00020F440400843506070470021714A2032C2
:100AC0001170704A82F82010012802D004280AD13F
:100AD00004E001216B4A2032117005E00521694ACA
:100AE0002032117000E000BF00BF70476949086004
:100AF00070476449096A0143624A11627047654957
:100B000044390860704730B50021002200240023DA
:100B10005C4D6D6805F00C0121B1042905D0082950
:100B200023D105E05C4D056022E05B4D05601FE0D0
:100B3000544D6D6805F47012524D6D6805F48034A3
:100B4000022505EB92421CB9544D554305600BE05C
:100B50004C4D6D6805F400351DB1504D5543056091
:100B600002E04D4D5543056002E04B4D056000BF6E
:100B700000BF444D6D6805F0F0010909484D6B5CFC
:100B80000568DD4045603F4D6D6805F4E061090A88
:100B9000434D6B5C4568DD4085603A4D6D6805F4FA
:100BA0006051C90A3E4D6B5C4568DD40C560354DFE
:100BB0006D6805F44041890B3A4D6B5CC568B5FB27
:100BC000F3F5056130BD29B12E4A526902432D4B20
:100BD0005A6104E02B4A526982432A4B5A6170479A
:100BE00029B1284A92690243264B9A6104E0254ABA
:100BF00092698243234B9A61704729B1214AD26995
:100C00000243204BDA6104E01E4AD26982431D4B45
:100C1000DA61704729B11B4AD2680243194BDA6086
:100C200004E0184AD2688243164BDA60704729B153
:100C3000144A12690243134B1A6104E0114A126903
:100C40008243104B1A61704712494039086070475F
:100C50000F49C86470470B49C87170470948406A1A
:100C600040F0807007494862704701460020054AFD
:100C700092680A400AB1012000E000207047014953
:100C800088727047001002400000FFF8FFFFF6FE78
:100C9000000042428004424200127A0000093D00F6
:100CA000200000203000002010B50446FB4884429C
:100CB00009D101218803FFF7ADFF00214FF48040E7
:100CC000FFF7A8FF32E0F648844209D10121480429
:100CD000FFF7ADFF00214FF40030FFF7A8FF25E03C
:100CE000F048844209D101218804FFF7A0FF0021C8
:100CF0004FF48020FFF79BFF18E0EB48844209D1B6
:100D00000121C804FFF793FF00214FF40020FFF7F3
:100D10008EFF0BE0E548844208D101210805FFF76A
:100D200086FF00214FF48010FFF781FF10BD2DE9F1
:100D3000F04786B005460E460024A24600BFA146F5
:100D40000027B08900B100BF2F462C8A4CF6FF70F7
:100D50000440F08804432C82AC894EF6F310044022
:100D6000B08831890843718908430443AC81AC8A57
:100D70004FF6FF400440B0890443AC8201A8FFF75E
:100D8000C2FEC648874202D1DDF810A001E0DDF8BE
:100D90000CA0A88900F4004040B10AEBCA0000EBA7
:100DA0000A1031684900B0FBF1F807E00AEBCA000D
:100DB00000EB0A1031688900B0FBF1F86420B8FB41
:100DC000F0F004012009642101FB1089A88900F4D6
:100DD000004040B1322000EBC900B0FBF1F000F060
:100DE0000700044308E0322000EB09106421B0FB47
:100DF000F1F000F00F0004432C8106B0BDE8F0874D
:100E00004FF41651016000218180C18001810C21C5
:100E1000418100218181704710B502460020108A6F
:100E20004FF2FF0318400B884C8823438C882343E0
:100E3000CC8823431843108210BD002101804180DB
:100E40008180C180704721B1828942F40052828141
:100E500004E082894DF6FF731A4082817047F0B535
:100E60000346002400260025002040F66A17B942F8
:100E700000D100BF1846C1F3421401F01F0601273C
:100E800007FA06F5012C01D10C3004E0022C01D147
:100E9000103000E014301AB107682F43076002E0F9
:100EA0000768AF430760F0BD1AB1838A0B438382A2
:100EB00002E0838A8B4383827047028A4FF6F07385
:100EC0001A400282028A0A430282704782894FF2E4
:100ED000FF731A40828182890A438281704721B15F
:100EE000828942F00202828104E082894FF6FD731A
:100EF0001A4082817047028A4FF6DF731A400282DD
:100F0000028A0A430282704721B1028A42F4804277
:100F1000028204E0028A4BF6FF731A400282704795
:100F2000C1F308028280704701468888C0F3080038
:100F30007047818941F0010181817047028BD2B2F3
:100F40000283028B42EA012202837047028B02F481
:100F50007F420283028B0A430283704721B1828A57
:100F600042F02002828204E0828A4FF6DF731A4048
:100F70008282704721B1828A42F01002828204E0AC
:100F8000828A4FF6EF731A408282704721B1828ABB
:100F900042F00802828204E0828A4FF6F7731A4018
:100FA0008282704721B1828942F40042828103E04B
:100FB0008289C2F30E028281704721B1828A42F493
:100FC0000062828204E0828A4FF2FF731A408282BA
:100FD0007047828A4FF6FB731A408282828A0A43E4
:100FE0008282704721B1828A42F00202828204E04A
:100FF000828A4FF6FD731A408282704702460020B3
:10100000B1F5007F00D100BF13880B400BB1012068
:1010100000E00020704701F40072B2F5007F00D1BB
:1010200000BFCA430280704770B502460024002307
:101030000025002040F66A16B14200D100BFC1F37E
:10104000421501F01F03012606FA03F3012D02D118
:101050009689334006E0022D02D1168A334001E022
:10106000968A33400C12012606FA04F4168834409E
:1010700013B10CB1012000E0002070BD10B50022BA
:10108000002340F66A14A14200D100BF0A120124D5
:101090009440A3B2DC43048010BD0000003801403E
:1010A0000044004000480040004C00400050004018
:1010B00010B56FF00400FFF758FA2E4800682E496B
:1010C000B0FBF1F02D4908700846007800EB4001B4
:1010D000C1EBC0104FF6FF7101EAC000284908803B
:1010E00010BD0146254A12784A434FF0E0235A6169
:1010F00000229A611A46126942F001021A6100BF89
:101100004FF0E022106900F001021AB100F48032C1
:10111000002AF5D04FF0E022126922F001024FF0D0
:10112000E0231A6100229A6170470146144A12882E
:101130004A434FF0E0235A6100229A611A4612692D
:1011400042F001021A6100BF4FF0E022106900F086
:1011500001021AB100F48032002AF5D04FF0E022EB
:10116000126922F001024FF0E0231A6100229A6115
:10117000704700000C00002000127A0034000020AC
:1011800036000020014600BF704700BF484A128861
:1011900002F04002002AF9D0C2B2454B1B1D1A8052
:1011A000704710B586B00446012144F20800FFF7ED
:1011B00017FD4020ADF8140003208DF8160018200C
:1011C0008DF8170005A93B48FFF74EFA8020ADF8CF
:1011D000140004208DF8170005A93648FFF744FADB
:1011E00025208DF8000003208DF801008DF8020005
:1011F00001208DF803006846FFF76DF90194002087
:10120000ADF80800ADF80A00ADF80C00ADF810001C
:101210000C20ADF80E0001A92548FFF788FD01223A
:1012200040F225512248FFF71AFE01212048FFF71E
:101230000AFE06B010BD10B540F225511C48FFF75C
:10124000F3FE10B31A48FFF76FFEC4B21A480088C5
:1012500000F40040C8B91848008800F4804060B12C
:101260000A2C03D000201449088020E0124800888E
:1012700040F400401049088019E00D2C06D10E48BA
:10128000008840F480400C49088010E00A4800883B
:10129000C0F30D0009490C5407480088401C06495A
:1012A000088008460088C72801DD0020088010BD9E
:1012B00000380140000C01403C0000207C00002070
:1012C000002105E0002200E0521CFA2AFCD3491C50
:1012D0008142F7D3704738B5044601212020FFF73B
:1012E0007FFC0420ADF8000014208DF803000320DB
:1012F0008DF802006946F748FFF7B6F90121102082
:10130000FFF76EFC01210920FFF76AFC0121F2487A
:10131000FFF77BFA4FF4E050ADF8000014208DF891
:10132000030003208DF802006946EC48FFF79CF9A2
:1013300001210820FFF754FC1820ADF8000014200C
:101340008DF8030003208DF802006946E448FFF79A
:101350008BF901210420FFF743FC01210520FFF751
:101360003FFC0121DC48FFF750FA4FF40040ADF894
:10137000000014208DF8030003208DF80200694658
:10138000D848FFF771F901210820FFF729FC4FF435
:101390000070ADF8000014208DF8030003208DF8D4
:1013A00002006946CE48FFF75FF94FF40071CC4860
:1013B000FFF709FA4FF40041CA48FFF702FA4FF469
:1013C0008061C648FFF7FFF94FF40061C348FFF79B
:1013D000FAF94FF48051C148FFF7F5F90421BD48EF
:1013E000FFF7F1F91021BE48FFF7EDF90821BC48DD
:1013F000FFF7E9F938BD2DE9F04106460F463C46B6
:1014000000254DE01021B648FFF7DDF904F001009A
:1014100020B10421AF48FFF7D4F903E00421AD481F
:10142000FFF7D1F9640804F0010028B14FF48051AE
:10143000AA48FFF7C6F904E04FF48051A748FFF728
:10144000C2F9640804F0010028B14FF40061A34818
:10145000FFF7B7F904E04FF40061A048FFF7B3F9D4
:10146000640804F0010028B14FF480619B48FFF745
:10147000A8F904E04FF480619848FFF7A4F96408E4
:101480001420FFF71DFF10219548FFF79AF914204B
:10149000FFF716FF10219248FFF795F9681CC5B2B7
:1014A000082DAFDB3446002550E010218C48FFF7B3
:1014B0008AF904F0010020B104218648FFF781F980
:1014C00003E004218348FFF77EF9640804F001007B
:1014D00028B14FF480518148FFF773F904E04FF4CD
:1014E00080517E48FFF76FF9640804F0010028B1CD
:1014F0004FF400617948FFF764F904E04FF40061AC
:101500007648FFF760F9640804F0010028B14FF451
:1015100080617248FFF755F904E04FF480616F482D
:10152000FFF751F964081420FFF7CAFE10216C4838
:10153000FFF747F91420FFF7C3FE10216848FFF7B3
:1015400042F91420FFF7BCFE681CC5B2082DACDBC5
:10155000BDE8F08110B508216148FFF732F932206B
:10156000FFF7AEFE08215E48FFF72DF91420FFF7C4
:10157000A7FE10BD70B504464FF0FF352E4620780B
:1015800020B94EF6FF705849088046E020780128BF
:1015900004D14FF6FF50544908803EE020780228DD
:1015A00004D14FF6FF605049088036E020780328C8
:1015B00004D14FF67F704C4908802EE02078042833
:1015C00004D14FF6BF704849088026E020780528EE
:1015D00004D14FF6FF30444908801EE020780628E9
:1015E00004D14FF2FF704049088016E020780728A8
:1015F00004D147F6FF703C4908800EE020780828A7
:1016000004D14BF6FF703849088006E0207809289D
:1016100003D14DF6FF7034490880607820B94EF64A
:10162000FF703249088046E06078012804D14FF607
:10163000FF502E4908803EE06078022804D14FF622
:10164000FF602A49088036E06078032804D14FF60D
:101650007F70264908802EE06078042804D14FF678
:10166000BF702249088026E06078052804D14FF633
:10167000FF301E4908801EE06078062804D14FF232
:10168000FF701A49088016E06078072804D147F6F1
:10169000FF70164908800EE06078082804D14BF6E8
:1016A000FF701249088006E06078092803D14DF6E2
:1016B000FF700E490880A07820B94FF6FF300C4922
:1016C000088056E0A078012814D14FF6BF70084971
:1016D00008804EE00014014000023000001001407C
:1016E000000C0140000801404A0000204800002092
:1016F00046000020A078022804D14FF67F70D3491D
:10170000088036E0A078032804D14FF6FF60CF4967
:1017100008802EE0A078042804D14FF6FF50CB4972
:10172000088026E0A078052804D147F6FF70C74955
:1017300008801EE0A078062804D14BF6FF70C3494C
:10174000088016E0A078072804D14DF6FF70BF4945
:1017500008800EE0A078082804D14EF6FF70BB493F
:10176000088006E0A078092803D14FF2FF70B7493E
:101770000880E07820B94FF2FF70B549088046E054
:10178000E078012804D14FF6FF50B14908803EE0CF
:10179000E078022804D14FF6FF60AD49088036E0BA
:1017A000E078032804D14FF67F70A94908802EE025
:1017B000E078042804D14FF6BF70A549088026E0E0
:1017C000E078052804D14FF6FF30A14908801EE0DB
:1017D000E078062804D147F6FF709D49088016E09E
:1017E000E078072804D14BF6FF70994908800EE095
:1017F000E078082804D14DF6FF709549088006E08E
:10180000E078092803D14EF6FF70914908802079CD
:1018100020B94EF6FF708F49088046E020790128F4
:1018200004D14FF6FF508B4908803EE02079022812
:1018300004D14FF6FF608749088036E020790328FD
:1018400004D14FF67F70834908802EE02079042868
:1018500004D14FF6BF707F49088026E02079052823
:1018600004D14FF6FF307B4908801EE0207906281E
:1018700004D14FF2FF707749088016E020790728DD
:1018800004D147F6FF70734908800EE020790828DC
:1018900004D14BF6FF706F49088006E020790928D3
:1018A00003D14DF6FF706B490880607920B94EF680
:1018B000FF706949088046E06079012804D14FF63D
:1018C000FF50654908803EE06079022804D14FF658
:1018D000FF606149088036E06079032804D14FF643
:1018E0007F705D4908802EE06079042804D14FF6AE
:1018F000BF705949088026E06079052804D14FF669
:10190000FF30554908801EE06079062804D14FF267
:10191000FF705149088016E06079072804D147F626
:10192000FF704D4908800EE06079082804D14BF61D
:10193000FF704949088006E06079092803D14DF617
:10194000FF704549088044480088444908600846BB
:1019500000880004086008460068414908433F4980
:1019600008600846006805403A4800880860084654
:10197000006880010860084600683A490843374912
:10198000086008460068054031480088086008463D
:1019900000680009086008460068334908432F4979
:1019A0000860084600680540284800882F490880DC
:1019B0000846008880130880084600884FF6FC71AE
:1019C00008432A49088008460088244908600846D8
:1019D000006860F0030008600846006805401B4886
:1019E000008823490860084600888004086008468B
:1019F000006860F07F4008600846006806401D48A7
:101A00000088086008460068000208600846006810
:101A100019490843164908600846006806401748F7
:101A2000008808600846006880080860084600686A
:101A3000134908430E4908600846006806403146CD
:101A40002846FFF7D8FCFFF785FD70BD4600002053
:101A50004400002042000020400000204C000020F4
:101A6000FFFF3F00FF0FC0FF03F0FFFF5400002007
:101A70005000002048000020FF3F00FF4A000020E7
:101A80000FC0FFFF08B501210420FFF7A9F80121CD
:101A90000820FFF7A5F801211020FFF7A1F810207A
:101AA0008DF80300C020ADF8000003208DF802007F
:101AB0006946AF48FEF7D8FD10208DF8030040F6C8
:101AC0000760ADF8000003208DF802006946A948C0
:101AD000FEF7CAFD10208DF803003020ADF800009D
:101AE00003208DF802006946A348FEF7BDFD08BD3E
:101AF00010B540219E48FEF764FE80219C48FEF709
:101B000062FE10219C48FEF75CFE20219A48FEF7F9
:101B100058FE01219748FEF756FE02219548FEF730
:101B200050FE04219348FEF74CFE4FF4806191482B
:101B3000FEF749FE4FF400618E48FEF742FE10BDED
:101B400010B540218A48FEF73EFE80218848FEF706
:101B500038FE10218848FEF734FE20218648FEF723
:101B600032FE01218348FEF72CFE02218148FEF758
:101B700028FE04217F48FEF726FE4FF480617D4851
:101B8000FEF71FFE4FF400617A48FEF71AFE10BD03
:101B900010B540217648FEF714FE80217448FEF708
:101BA00010FE10217448FEF70EFE20217248FEF749
:101BB00008FE01216F48FEF704FE02216D48FEF782
:101BC00002FE04216B48FEF7FCFD4FF4806169487A
:101BD000FEF7F7FD4FF400616648FEF7F4FD10BD17
:101BE00010B540216248FEF7EEFD80216048FEF707
:101BF000E8FD10216048FEF7E6FD20215E48FEF773
:101C0000E2FD01215B48FEF7DCFD02215948FEF7A9
:101C1000DAFD04215748FEF7D6FD4FF480615548A0
:101C2000FEF7CFFD4FF400615248FEF7CCFD10BD2A
:101C300010B540214E48FEF7C4FD80214C48FEF708
:101C4000C2FD10214C48FEF7BEFD20214A48FEF798
:101C5000B8FD01214748FEF7B6FD02214548FEF7D1
:101C6000B2FD04214348FEF7ACFD4FF480614148CA
:101C7000FEF7A9FD4FF400613E48FEF7A4FD10BD3C
:101C800010B540213A48FEF79EFD80213848FEF706
:101C90009AFD10213848FEF794FD20213648FEF7C2
:101CA00092FD01213348FEF78EFD02213148FEF7F7
:101CB00088FD04212F48FEF786FD4FF480612D48F2
:101CC000FEF781FD4FF400612A48FEF77AFD10BD52
:101CD00010B540212648FEF774FD80212448FEF708
:101CE00070FD10212448FEF76CFD20212248FEF7EC
:101CF00068FD01211F48FEF764FD02211D48FEF723
:101D000060FD04211B48FEF75CFD4FF4806119481B
:101D1000FEF757FD4FF400611648FEF752FD10BD67
:101D200010B540211248FEF74EFD80211048FEF705
:101D30004AFD10211048FEF746FD20210E48FEF70F
:101D400042FD01210B48FEF73EFD02210948FEF746
:101D50003AFD04210748FEF736FD4FF4806105483F
:101D6000FEF731FD4FF400610248FEF72CFD10BD77
:101D700000080140000C01400010014070B505460C
:101D80000C4600F0FCF9D02000F052FA28B92846A1
:101D900000F04EFA204600F04BFA00F010FA70BD49
:101DA00070B5044600F0EBF9D02000F041FA68B9B4
:101DB000204600F03DFA00F0E2F9D12000F038FAB8
:101DC00000F078FA0546012000F012FA00F0F7F969
:101DD000284670BD2DE9F04180460D4616461F4647
:101DE00027B300F0CCF9D02000F022FAD8B9404651
:101DF00000F01EFA00F0C3F9D12000F019FA002417
:101E00000FE000F057FA2870701EA04203D10120A5
:101E100000F0EEF902E0002000F0EAF96D1C601C11
:101E2000C4B2B442EDDB00F0CAF914E000F0A7F947
:101E3000D02000F0FDF960B9404600F0F9F9002427
:101E400005E0287800F0F4F96D1C601CC4B2B442BF
:101E5000F7DB00F0B4F9BDE8F0811CB5044664B3CB
:101E60000123072269460020FFF7B4FF9DF8000018
:101E700000F07F00A149C8719DF8010000F07F00CB
:101E800088719DF8020000F03F0048719DF8030042
:101E900000F00700C8709DF8040000F03F000871D2
:101EA0009DF8050000F01F0088709DF8060042F2C2
:101EB000190108439149088021E09048C0798DF8C4
:101EC00000008E4880798DF801008C4840798DF8AB
:101ED00002008A48C0788DF80300884800798DF8A0
:101EE0000400864880788DF80500844800788DF8D5
:101EF00006000023072269461846FFF76BFF1CBD4A
:101F000010B50446E0797E490870A0794870607980
:101F10008870E078C87020790871A07848712078BE
:101F20008871002307221846FFF754FF00210E2076
:101F3000FFF724FF00210F20FFF720FF10BD10B591
:101F40000F20FFF72DFF00F0800008B1012010BD29
:101F50000E20FFF725FF00F0800008B10120F6E712
:101F60000020F4E710B50120FFF777FF6348C07940
:101F7000302101EB2010634988716048C07900F07E
:101F80000F003030C8715D488079302101EB20109E
:101F90005C49C8705948807900F00F0030300871F2
:101FA00056484079302101EB2010564908705348BB
:101FB000407900F00F0030304870504800793021EF
:101FC00001EB2010504908724C48007900F00F00D6
:101FD0003030487249488078302101EB20104A495E
:101FE00048714648807800F00F00303088714348CF
:101FF0000088302101EB2030434908703F480088B9
:10200000C0F30320303048703C480088302101EB99
:1020100020103D4988703948007800F00F003030BA
:10202000C8703648C07800F00F003030C87210BD5C
:102030002DE9F04104461120FFF7B2FE05461220BB
:10204000FFF7AEFE861105F0800038B1E843C5B257
:10205000F043401CC6B22D20207001E020202070EB
:10206000304600F013FA80464FF07A5100F022FA21
:10207000074605F070054FF47A7095FBF0F100FB10
:102080001150642190FBF1F030306070642095FBBA
:10209000F0F100FB11500A2190FBF1F03030A070FC
:1020A0000A2095FBF0F100FB11503030E0702E203B
:1020B00020711649384600F0FDF9804600F0C6F957
:1020C000303060711249384600F0F4F9804600F073
:1020D000BDF9C0B20A2190FBF1F201FB12003030D1
:1020E000A0716078302801D120206070A07830285D
:1020F00001D12020A070BDE8F08100006C0000201C
:1021000074000020560000205E00002000002041E6
:102110000000C84208B501210420FEF761FD30200F
:10212000ADF8000010208DF8030003208DF80200A8
:1021300069467748FEF798FA08BD08B501210420E2
:10214000FEF74EFD1020ADF800008DF803000320CF
:102150008DF8020069466E48FEF786FA08BD08B59C
:1021600001210420FEF73CFD1020ADF800004820BE
:102170008DF8030069466648FEF776FA08BD10B58B
:10218000FFF7DBFF10216248FEF71BFB0220FEF782
:10219000A8FF20215E48FEF714FB0220FEF7A1FFF6
:1021A00010215B48FEF70FFB0220FEF79AFF20216B
:1021B0005748FEF708FB0220FEF793FF10BD10B54D
:1021C000FFF7BBFF10215248FEF7FDFA0220FEF791
:1021D00088FF20214E48FEF7F6FA0220FEF781FF25
:1021E00010214B48FEF7EDFA0220FEF77AFF10BDF2
:1021F00010B50446FFF7A1FF24B110214448FEF7B3
:10220000E0FA03E010214248FEF7DDFA0220FEF773
:1022100068FF20213E48FEF7D4FA0220FEF761FF56
:1022200020213B48FEF7CFFA0220FEF75AFF10BDEF
:1022300070B504460026FFF780FF00251DE004F07E
:10224000800020B110213248FEF7BBFA03E01021D4
:102250002F48FEF7B8FA0220FEF743FF20212C4852
:10226000FEF7AFFA0220FEF73CFF20212848FEF7D8
:10227000AAFA6006040E681CC5B2082DDFDB102127
:102280002348FEF79EFAFFF76AFF0220FEF729FFB8
:1022900020211F48FEF795FA0220FEF722FF1021A9
:1022A0001B48FEF774FA064320211948FEF78BFA03
:1022B000304670BD70B5002410211548FEF781FA34
:1022C000FFF74DFF00251BE06006040E0220FEF71D
:1022D00008FF20210E48FEF774FA0220FEF701FFE6
:1022E00010210B48FEF753FA08B144F001042021F5
:1022F0000748FEF768FA0220FEF7F3FE681CC5B235
:10230000082DE1DB20210248FEF75DFA204670BD72
:102310000008014008B501210420FEF761FC1020EF
:102320008DF8030041F60160ADF8000003208DF840
:10233000020069462748FEF797F9002026490870F1
:102340004FF400712348FEF73EFA4FF480612148B4
:10235000FEF739FA4FF400611E48FEF734FA4FF4E5
:1023600080511C48FEF72FFA08BD10B51A480078B6
:1023700080F001001849087008460078012813D140
:1023800041021448FEF71FFA4FF480611148FEF72E
:102390001AFA4FF400610F48FEF715FA4FF4805116
:1023A0000C48FEF710FA13E04FF400710948FEF7ED
:1023B00008FA4FF480610748FEF703FA4FF4006112
:1023C0000448FEF7FEF94FF480510248FEF7F9F990
:1023D00010BD0000000801407B00002070477047DE
:1023E000704770477047754600F02CF8AE46050000
:1023F0006946534620F00700854618B020B5FEF721
:1024000053F8BDE820404FF000064FF000074FF0B2
:1024100000084FF0000B21F00701AC46ACE8C00902
:10242000ACE8C009ACE8C009ACE8C0098D4670470B
:1024300010B50446AFF300802046BDE81040FDF71C
:10244000BEBE00000048704744010020C10DD1F11C
:102450009E0206DB4FEA002343F0004323FA02F01A
:102460007047004207D54FEA4001B1F1FE4F02D25A
:102470004FF00000704710B500F09DF8499224809D
:10248000002070476FEA200070470000B0FA80F328
:1024900010FA03F2C3F19D030AD0D90501EB122013
:1024A000530638BF704700F1010008BF20F001005B
:1024B000704700004FF47F0C1CEAD0121EBF1CEACC
:1024C000D11392EA0C0F93EA0C0F00F0478090EAC8
:1024D000010F48BF42F480724FF0004C4CEA0020DC
:1024E0004CEA012102EB0302A0FB0113A2F500025A
:1024F000002918BF43F001035B0028BF4FEA3303F4
:1025000042EB22425FEA132C4CEBC2502EBFBCEBD5
:10251000436FB2F57C0F70474FEA036CBCF1004F7C
:1025200008BF20F00100B2F57C0F38BF70470BD513
:1025300082F0FF0212F5803FC8BF704700F1C04033
:10254000D8BF00F00040704700F5000C5FEA4C0C6B
:1025500048BF7047B0F1C04000F073B890EA010F77
:102560000CEAD11348BF42F48072624538BF63451C
:1025700004D280EA010000F00040704710B500F07E
:102580001AF800BF8900013E00F007B800F009B852
:102590005FEA410C5FEA1C6C08D080EA010000F0A1
:1025A00050B85FEA400C5FEA1C6CF6D14FF0004077
:1025B000A0F5800070470EF1020E2EF0030E5EF8BB
:1025C000044B244204D44FEA4102B2F17F4F11D8A8
:1025D0004FEA4003B3F17F4F0CD80ED14FEAD07CC5
:1025E000B2F17F4F0CEB4C0C0CF1020C08BF4CEB22
:1025F000D17C04E04FF0080C01E04FEAD17C0CEBF9
:102600004C0324FA03F404F00704B4F1040C06D2DA
:102610000EEB840CBDE810404CF0010C6047DFE885
:102620000CF0070802024FF00040A0F5800010BD3A
:102630000846420018BFD2F1807288BF00F0004007
:1026400010BDFF2141EAD050C00570476C2600083C
:10265000000000207C0000006C010008E826000853
:102660007C0000202C0700008801000800020506FD
:10267000030303000000010000A24A040000000060
:102680000000000001020304060708090000000022
:1026900001020304010203040607080902040608F4
:1026A000000000000000000000000000000000002A
:1026B000000000000000000000000000000000001A
:1026C000000030303A30303A3030323031332F3150
:1026D000302F32302037570000000000000000008B
:0826E0000000000000000000F2
:0400000508000131BD
:00000001FF
